:100000000C9435000C9452000C9452000C94520045
:100010000C9452000C9452000C9452000C94520018
:100020000C9452000C9452000C9452000C94520008
:100030000C9452000C9452000C9452000C945200F8
:100040000C9452000C9452000C9452000C945200E8
:100050000C9452000C9452000C9452000C945200D8
:100060000C9452000C945200230111241FBECFEFB8
:10007000D8E0DEBFCDBF21E0A0E0B1E001C01D921D
:10008000A430B207E1F710E0C5E3D0E004C0219747
:10009000FE010E942B01C433D107C9F70E94E5007D
:1000A0000C9431010C9400008091020190910301A5
:1000B000019690930301809302018FE087B9089520
:1000C000613041F028F0623039F0633039F0089542
:1000D00081E005C082E003C084E001C088E088B907
:1000E0000895FC0160816F5F63706083218121113D
:1000F00003C003960C94600002960C94C700CF9343
:10010000DF93EC0102960E94C500CE0103960E9487
:1001100054008FE087B988B9DF91CF9108956115B8
:10012000710571F4FC01608161506370608321810D
:10013000211103C003960C94600002960C94C70032
:100140006130710511F40C947100089560E070E065
:100150000C948F000C947100FC01618308958FE072
:100160008BB91AB80895489B07C0499B08C04B9BA0
:1001700009C080E090E0089581E090E0089582E079
:1001800090E0089584E090E008950C9454008FE08E
:1001900088B9613041F028F0623039F0633039F0CD
:1001A0000895409808954198089542980895439875
:1001B00008958FE084B908958FE085B9089561307E
:1001C000710511F48FE085B90895CF93DF9300D0C6
:1001D00000D0CDB7DEB7CE0101960E947F0080E04F
:1001E00091E00E94B300049731F461E0CE010196E2
:1001F0000E94AC0009C060E0CE0101960E94AC00F4
:1002000081E091E00E94DC002FE986E891E0215036
:1002100080409040E1F700C0000080E091E00E9443
:10022000B300019729F4CE0101960E94AA00ECCFF9
:1002300080E091E00E94B300029731F7CE01019671
:100240000E94A600E1CF81E091E00E94D90080E009
:1002500091E00C94AF00EE0FFF1F0590F491E02D9C
:060260000994F894FFCFA1
:00000001FF
