:100000000C9435000C9452000C9452000C94520045
:100010000C9452000C9452000C9452000C94520018
:100020000C9452000C9452000C9452000C94520008
:100030000C9452000C9452000C9452000C945200F8
:100040000C9452000C9452000C9452000C945200E8
:100050000C9452000C9452000C9452000C945200D8
:100060000C9452000C9452000C0111241FBECFEFCF
:10007000D8E0DEBFCDBF21E0A0E0B1E001C01D921D
:10008000A230B207E1F710E0C5E3D0E004C0219749
:10009000FE010E941001C433D107C9F70E94D300AA
:1000A0000C9416010C9400008FE087B98091000138
:1000B000811103C081E088B90895409808956130A6
:1000C00041F028F0623039F0633039F0089581E072
:1000D00005C082E003C084E001C088E088B90895CB
:1000E000FC0160816F5F63706083209100012111CA
:1000F00003C001960C945F0002960C94C100611538
:10010000710579F4FC016081615063706083209116
:100110000001211103C001960C945F0002960C941B
:10012000C1006130710511F40C947000089560E015
:1001300070E00C947F000C9470008FE08BB91AB8BB
:100140000895489B07C0499B08C04B9B09C080E0AD
:1001500090E0089581E090E0089582E090E00895B5
:1001600084E090E008950E9454008FE087B9809168
:100170000001811102C081E002C088B18E6F88B990
:1001800008958FE088B9613041F028F0623039F08D
:10019000633039F008954098089541980895429841
:1001A000089543980895CF93DF9300D01F92CDB761
:1001B000DEB781E091E00E94A100049721F481E084
:1001C0008093000102C010920001CE0102960E94AD
:1001D0005400CE0103960E94B3002FE986E891E017
:1001E000215080409040E1F700C0000081E091E0A4
:1001F0000E94A100019729F4CE0101960E949B0064
:10020000ECCF81E091E00E94A100029731F7CE018E
:1002100001960E949700E1CF81E091E00C949D004F
:10022000EE0FFF1F0590F491E02D0994F894FFCF95
:00000001FF
