:100000000C9435000C9452000C9452000C94520045
:100010000C9452000C9452000C9452000C94520018
:100020000C9452000C9452000C9452000C94520008
:100030000C9452000C9452000C9452000C945200F8
:100040000C9452000C9452000C9452000C945200E8
:100050000C9452000C9452000C9452000C945200D8
:100060000C9452000C945200C40011241FBECFEF18
:10007000D8E0DEBFCDBF21E0A0E0B1E001C01D921D
:10008000A330B207E1F710E0C5E3D0E004C0219748
:10009000FE010E94CC00C433D107C9F70E949A0028
:1000A0000C94D2000C9400008FE087B981E088B9ED
:1000B0000895613041F028F0623039F0633039F052
:1000C000089581E005C082E003C084E001C088E0BB
:1000D00088B908956115710521F4FC0160816150B2
:1000E00006C06130710541F4FC0160816F5F63708F
:1000F0006193CF010C945900089560E070E00C9476
:100100006A00FC0160816F5F63706193CF010C94A2
:1001100059008FE08BB91AB80895489B05C0499BD8
:1001200006C080E090E0089581E090E0089582E0CC
:1001300090E0089582E091E00E948D00019729F4FB
:1001400080E091E00E9481000AC082E091E00E947C
:100150008D00029749F480E091E00E947D0087EADB
:1001600091E60197F1F70DC082E091E00E948D00C9
:10017000892B01F79FE926E881E0915020408040DB
:10018000E1F700C00000D6CF82E091E00E94890034
:1001900081E091E00C945400EE0FFF1F0590F49164
:0801A000E02D0994F894FFCF53
:00000001FF
