:100000000C9435000C945D000C945D000C945D0024
:100010000C945D000C945D000C945D000C945D00EC
:100020000C945D000C945D000C945D000C945D00DC
:100030000C945D000C945D000C945D000C945D00CC
:100040000C945D000C945D000C945D000C945D00BC
:100050000C945D000C945D000C945D000C945D00AC
:100060000C945D000C945D00280111241FBECFEF9D
:10007000D8E0DEBFCDBF11E0A0E0B1E0E8E7F2E0FC
:1000800002C005900D92AC30B107D9F721E0ACE089
:10009000B1E001C01D92A331B207E1F710E0C5E362
:1000A000D0E004C02197FE010E943401C433D1077F
:1000B000C9F70E94F2000C943A010C9400006130E0
:1000C00041F028F0623039F0633039F0089581E072
:1000D00005C082E003C084E001C088E088B90895CB
:1000E00024E031E0FC013183208380911101909163
:1000F0001201019690931201809311018FE087B94C
:100100000895FC0160816F5F6370608382819381D9
:10011000DC01ED91FC910190F081E02D09948FE0DC
:1001200088B908956115710581F4DC016C91615005
:1001300063706C9312968D919C911397DC01ED91F5
:10014000FC910190F081E02D09946130710511F46A
:100150000C948100089560E070E00C9492000C947F
:1001600081008FE08BB91AB80895489B07C0499B5E
:1001700008C04B9B09C080E090E0089581E090E0CA
:10018000089582E090E0089584E090E008958FE083
:1001900088B9613041F028F0623039F0633039F0CD
:1001A0000895409808954198089542980895439875
:1001B0000895CF93DF93EC010E9470008AE091E0F4
:1001C00099838883DF91CF91089581E084B98FE08E
:1001D00085B908956130710521F481E084B98FE01B
:1001E00085B90895CF93DF9300D000D0CDB7DEB7A7
:1001F000CE0101960E948F0080E191E00E94B5003F
:10020000049719F48CE091E002C08EE091E09C83A9
:100210008B832FE986E891E0215080409040E1F700
:1002200000C0000080E191E00E94B500019729F430
:10023000CE0101960E94AF00ECCF80E191E00E94D8
:10024000B500029731F7CE0101960E94AB00E1CFD5
:1002500080E191E00E94B1008EE091E00E94700088
:100260008CE091E00C94D900EE0FFF1F0590F49103
:08027000E02D0994F894FFCF82
:0C027800000000005F0000000000C70054
:00000001FF
