:100000000C9435000C9452000C9452000C94520045
:100010000C9452000C9452000C9452000C94520018
:100020000C9452000C9452000C9452000C94520008
:100030000C9452000C9452000C9452000C945200F8
:100040000C9452000C9452000C9452000C945200E8
:100050000C9452000C9452000C9452000C945200D8
:100060000C9452000C9452009D0011241FBECFEF3F
:10007000D8E0DEBFCDBF21E0A0E0B1E001C01D921D
:10008000A230B207E1F710E0C5E3D0E004C0219749
:10009000FE010E94A100C433D107C9F70E948F005E
:1000A0000C94A7000C9400008FE087B981E088B918
:1000B0000895613041F028F0623039F0633039F052
:1000C000089581E005C082E003C084E001C088E0BB
:1000D00088B9089501960E94540084E088B9089573
:1000E0006115710521F4FC016081615006C0613029
:1000F000710541F4FC0160816F5F63706193CF0112
:100100000C945900089560E070E00C947000FC01BC
:1001100060816F5F63706193CF010C9459002FEA87
:100120008DEA91E0215080409040E1F700C000004E
:1001300080E091E00E948700F2CF80E091E00C9493
:100140006A00EE0FFF1F0590F491E02D0994F894DA
:02015000FFCFDF
:00000001FF
