:100000000C9435000C9452000C9452000C94520045
:100010000C9452000C9452000C9452000C94520018
:100020000C9452000C9452000C9452000C94520008
:100030000C9452000C9452000C9452000C945200F8
:100040000C9452000C9452000C9452000C945200E8
:100050000C9452000C9452000C9452000C945200D8
:100060000C9452000C945200950011241FBECFEF47
:10007000D8E0DEBFCDBF21E0A0E0B1E001C01D921D
:10008000A230B207E1F710E0C5E3D0E004C0219749
:10009000FE010E949900C433D107C9F70E948A006B
:1000A0000C949F000C9400008FE087B981E088B920
:1000B0000895613041F028F0623039F0633039F052
:1000C000089581E005C082E003C084E001C088E0BB
:1000D00088B90895FC016115710519F460816150BA
:1000E00005C06130710541F460816F5F63706083AA
:1000F00080E091E00C945900089560E070E00C9469
:100100006A00FC0160816F5F6370608380E091E052
:100110000C9459008BE792E90197F1F700C00000B9
:1001200081E091E00E948100F5CF80E091E00C94A5
:100130005400EE0FFF1F0590F491E02D0994F89400
:02014000FFCFEF
:00000001FF
