:100000000C9435000C9452000C9452000C94520045
:100010000C9452000C9452000C9452000C94520018
:100020000C9452000C9452000C9452000C94520008
:100030000C9452000C9452000C9452000C945200F8
:100040000C9452000C9452000C9452000C945200E8
:100050000C9452000C9452000C9452000C945200D8
:100060000C9452000C945200E70011241FBECFEFF5
:10007000D8E0DEBFCDBF21E0A0E0B1E001C01D921D
:10008000A530B207E1F710E0C5E3D0E004C0219746
:10009000FE010E94F300C433D107C9F70E94BC00DF
:1000A0000C94F9000C9400008FE087B981E088B9C6
:1000B0000895613041F028F0623039F0633039F052
:1000C000089581E005C082E003C084E001C088E0BB
:1000D00088B908956115710541F4FC016081615092
:1000E00063706193CF010C9459006130710541F444
:1000F000FC0160816F5F6370608302960C94AA00BC
:10010000089560E070E00C946A00FC0160816F5F0C
:100110006370608302960C94AA008FE08BB91AB8C2
:100120000895489B07C0499B08C04B9B09C080E0CD
:1001300090E0089581E090E0089582E090E00895D5
:1001400084E090E008950E9454008FE087B981E038
:1001500088B908958FE088B9613041F028F06230A5
:1001600039F0633039F00895409808954198089522
:10017000429808954398089584E091E00E94910088
:10018000049721F481E08093000102C010920001E5
:100190002FE986E891E0215080409040E1F700C0CF
:1001A000000084E091E00E949100019729F481E031
:1001B00091E00E948500ECCF84E091E00E949100E4
:1001C000029731F781E091E00E948100E1CF84E065
:1001D00091E00E948D0082E091E00E94540083E053
:1001E00091E00C94A300EE0FFF1F0590F491E02D19
:0601F0000994F894FFCF12
:00000001FF
