:100000000C9434000C9446000C9446000C9446006A
:100010000C9446000C9446000C9446000C94460048
:100020000C9446000C9446000C9446000C94460038
:100030000C9446000C9446000C9446000C94460028
:100040000C9446000C9446000C9446000C94460018
:100050000C9446000C9446000C9446000C94460008
:100060000C9446000C94460011241FBECFEFD8E03C
:10007000DEBFCDBF21E0A0E0B1E001C01D92A23003
:10008000B207E1F70E947E000C948D000C940000F2
:100090008FE087B981E088B90895613041F028F098
:1000A000623039F0633039F0089581E005C082E0B4
:1000B00003C084E001C088E088B90895FC0161159F
:1000C000710519F46081615005C06130710541F41A
:1000D00060816F5F6370608380E091E00C944D00FD
:1000E000089560E070E00C945E00FC0160816F5F39
:1000F0006370608380E091E00C944D0080E091E0BB
:100100000E9448008BE792E90197F1F700C00000D8
:0E01100081E091E00E947500F5CFF894FFCFDA
:00000001FF
