:100000000C9435000C9452000C9452000C94520045
:100010000C9452000C9452000C9452000C94520018
:100020000C9452000C9452000C9452000C94520008
:100030000C9452000C9452000C9452000C945200F8
:100040000C9452000C9452000C9452000C945200E8
:100050000C9452000C9452000C9452000C945200D8
:100060000C9452000C945200AE0011241FBECFEF2E
:10007000D8E0DEBFCDBF21E0A0E0B1E001C01D921D
:10008000A130B207E1F710E0C5E3D0E004C021974A
:10009000FE010E94B300C433D107C9F70E94A0003B
:1000A0000C94B9000C9400008FE087B981E088B906
:1000B0000895613041F028F0623039F0633039F052
:1000C000089581E005C082E003C084E001C088E0BB
:1000D00088B90895CF93DF931F92CDB7DEB76983B8
:1000E0000E94540081E090E0698101C0880F6A9508
:1000F000EAF788B90F90DF91CF9108950E945400DC
:1001000081E088B908956115710521F4FC016081D1
:10011000615006C06130710539F4FC0160816F5F88
:10012000637060830C945900089560E070E00C9453
:100130008300FC0160816F5F637060830C945900E1
:100140002FEA8DEA91E0215080409040E1F700C015
:10015000000080E091E00E949900F2CF63E080E02F
:1001600091E00C946A00EE0FFF1F0590F491E02DD2
:060170000994F894FFCF92
:00000001FF
